:020000040800F2
:1000000080050020B9100008890200088B02000852
:100010008F02000893020008970200080000000009
:100020000000000000000000000000009B0200082B
:100030009D020008000000009F020008A1020008C5
:10004000D3100008D3100008D3100008D310000804
:10005000D3100008D3100008D3100008D3100008F4
:10006000D3100008D3100008A7080008D310000818
:10007000D3100008D3100008D3100008D3100008D4
:10008000D3100008D3100008D3100008D3100008C4
:10009000D3100008D3100008D3100008E1070008AF
:1000A000D3100008D3100008D3100008D3100008A4
:1000B000D3100008D3100008D3100008D310000894
:1000C000D3100008D3100008D3100008D310000884
:1000D000D31000082F100008D3100008D310000818
:1000E000D3100008D3100008D3100008D310000864
:1000F000D3100008D3100008D3100008D310000854
:10010000D3100008D3100008D3100008D310000843
:10011000D3100008D3100008D3100008D310000833
:10012000D3100008D3100008D3100008D310000823
:10013000D3100008D3100008D3100008D310000813
:10014000D3100008D3100008D3100008D310000803
:10015000D3100008D3100008D3100008D3100008F3
:10016000D3100008D3100008D3100008D3100008E3
:10017000D3100008D3100008D3100008D3100008D3
:10018000D3100008D3100008DFF810D002F05EFC96
:1001900000480047A1010008AFF30080800500205F
:1001A0008AB01D2102A802F0C6F92A480068019011
:1001B0004FF4A06000F092FF4FF4E13000F0E5FE54
:1001C000A82000F053FE00F075F900F0F5FB00F0F8
:1001D00067FC00F075FB00F0EFF900F065FA00F045
:1001E000E7FC1DA002F066FC06E01DA002F062FC28
:1001F0004FF4FA7000F09CFE00F041FD0028F4D1AD
:1002000019A002F057FC00F0F7FD22E001A800F071
:1002100081FD202816D103208DF8040031208DF8AF
:10022000050032208DF8060033208DF807000124E8
:1002300005E001A8015D10A002F03CFC641C042C48
:10024000F7DB02E00EA002F035FC4FF4FA7000F08C
:100250006FFEDBE78033000872656164790A000095
:100260004552524F522000004E524632344C3031EB
:10027000204F4B0A000000002563200A0000000008
:100280006661696C00000000704700BFFEE700BFB8
:10029000FEE700BFFEE700BFFEE77047704770470C
:1002A000704700000CB5002001900090764800686F
:1002B00040F480307449086000BF7348006800F45F
:1002C000003000900198401C0190009818B90198E6
:1002D000B0F5A04FF1D16C48006800F4003010B1C7
:1002E0000120009001E0002000900098012846D1F4
:1002F00065484030006840F08050634940310860F4
:100300006248006840F44040604908605E48083038
:1003100000685D49083108600846006840F4004004
:1003200008600846006840F4A05008605848091F5B
:100330000860081F006840F08070091F086000BF57
:100340005148006800F000700028F9D040F20570B4
:10035000504908604C480830006820F003004A49C2
:10036000083108600846006840F00200086000BFDD
:1003700045480830006800F00C000828F8D10CBD92
:1003800010B54548006840F47000434908603E4895
:10039000006840F001003C49086000203A490831FB
:1003A0000860394800683D490840374908603C48C2
:1003B000091D0860081F006820F48020091F0860DC
:1003C000002031490C310860FFF76CFF4FF00060EE
:1003D00031498039086010BD70B500200022022329
:1003E00000240221284D08352D6805F00C0020B1AD
:1003F000042806D0082834D107E02A4D2A4E35605B
:1004000033E02A4D284E35602FE01F4D2D1D2D68FD
:10041000C5F380541C4D2D1D2D6805F03F0154B1CE
:10042000224DB5FBF1F5184E361D3668C6F3881619
:1004300005FB06F209E01B4DB5FBF1F5124E361D2A
:100440003668C6F3881605FB06F20F4D2D1D2D6884
:10045000C5F301456D1C6B00B2FBF3F5124E356020
:1004600003E0104D104E356000BF00BF064D08354B
:100470002D68C5F303150E4E705D0B4D2D68C540FC
:10048000094E356070BD0000003802400070004029
:1004900008544007003C024088ED00E0FFFFF6FEF4
:1004A000103000240024F4000000002000127A0024
:1004B000040000201CB50121112001F0A3F91C202B
:1004C000009000208DF8040003208DF80500012025
:1004D0008DF807006946354800F0F6FE01200090CF
:1004E00002208DF807006946314800F0EDFE1CBD82
:1004F00010B5044614B101202E4908702D4800782B
:10050000002837D01021294800F040FF78B1082199
:10051000264800F03BFF50B10421244800F036FF8C
:1005200028B10121224800F031FF012822D10A2000
:1005300000F0FEFC00201F49087010211B4800F04D
:1005400025FF08B9012010BD0821184800F01EFF42
:1005500008B90220F7E70421144800F017FF08B992
:100560000320F0E70121124800F010FF01281BD101
:100570000420E8E710210D4800F008FF012813D1FE
:1005800008210A4800F002FF01280DD10421074884
:1005900000F0FCFE012807D10121054800F0F6FE1D
:1005A00010B90120034908700020CCE70010024078
:1005B00000000240140000201CB50121422001F07F
:1005C0006AF94FF43070009001208DF804006946FC
:1005D0007F4800F079FE40217D4800F0F3FE4FF4A3
:1005E00080717B4800F0ECFE4FF40071784800F019
:1005F000E7FE642000F09CFC1CBD10B5044600BF63
:100600000221744801F0D8FE0028F9D02146714833
:1006100001F088FE00BF01216E4801F0CDFE0028E8
:10062000F9D06C4801F07AFE10BD70B504460D4655
:100630008021674800F0C6FE44F04000FFF7DDFF70
:10064000022000F075FC0020FFF7D7FF022000F029
:100650006FFCE8B2FFF7D1FF012000F069FC8021B8
:100660005B4800F0ADFE70BD70B50446802158486F
:1006700000F0A8FE44F02000FFF7BFFF022000F0CA
:1006800057FC0020FFF7B9FF022000F051FC0020CA
:10069000FFF7B3FF0546012000F04AFC80214C48DB
:1006A00000F08EFE284670BD10B54FF480714848AA
:1006B00000F088FE0A2000F03BFC4FF480714448B3
:1006C00000F07EFE0A2000F033FC1120FFF795FFBA
:1006D000012000F02DFC96210120FFF7A6FFC0218C
:1006E0000220FFF7A2FFE0210320FFF79EFF032077
:1006F000FFF7BAFF0446214637A002F0DBF90A20D3
:1007000000F016FC00210520FFF78FFF00210620D6
:10071000FFF78BFF00210720FFF787FF002108204C
:10072000FFF783FF00210A20FFF77FFF00210A2047
:10073000FFF77BFF00210B20FFF777FF00210C2044
:10074000FFF773FF00211420FFF76FFF0021052042
:10075000FFF76BFF00210620FFF767FF002107204E
:10076000FFF763FF00210820FFF75FFF00210A2049
:10077000FFF75BFF00210A20FFF757FF00210B2046
:10078000FFF753FF00210C20FFF74FFF40211048D7
:1007900000F016FE0A2000F0CBFB1020FFF72DFF23
:1007A00010BD70B504468021094800F00BFE0025FD
:1007B00006E01020FFF721FF2070641C681CC5B202
:1007C0001B2DF6DB8021024800F0FAFD70BD000011
:1007D0000004024000300140253032780A00000059
:1007E00070B52DED028B0025012000F0A1FB40200B
:1007F00001F077FE012853D1402001F08CFE322019
:1008000000F096FB5748FFF7CCFF012433E004EBE0
:1008100044005449085C010404EB4400401C514A64
:10082000105C41EA002004EB4401891C515C084340
:100830004D4941F82500084650F8250000F4000015
:1008400030B1084650F8250040F07F4041F82500BF
:10085000454850F8250000EE100AB8EEC00A43489B
:10086000D0ED000A20EE200A414800EB850080ED23
:10087000000A6D1C641C092CC9DB3D4890ED000A80
:1008800010EE101A084601F0D3FE41EC180B53ECA1
:10089000182B611C37A002F00DF938A002F00AF9FC
:1008A000BDEC028B70BD10B5102001F01AFE0128BE
:1008B00005D133A002F0FEF8102001F02CFE10BD8F
:1008C0000EB5FFF7F7FD0121880300F0F5FF0621C3
:1008D000032001F0FCF84020009000208DF8040077
:1008E0000C208DF8050001208DF80600684601F007
:1008F000A1FD17208DF8080003208DF809000220C3
:100900008DF80A0001208DF80B0002A800F0EBFB27
:100910000EBD0EB5FFF7CEFD0121880300F0CCFF20
:100920000821062001F0D3F81020009000208DF857
:1009300004000C208DF8050001208DF806006846A3
:1009400001F078FD0A208DF8080003208DF80900D9
:1009500002208DF80A0001208DF80B0002A800F09B
:10096000C2FB0EBD5800002090000020180000209F
:10097000380000202538643A256620000A0000006F
:1009800073656E640000000010B5044600BF0221CC
:10099000844801F011FD0028F9D02146814801F07A
:1009A000C1FC00BF01217F4801F006FD0028F9D0FD
:1009B0007C4801F0B3FC10BD00B587B001210220D6
:1009C00000F020FF0121080300F076FF3820059099
:1009D00002208DF8180000208DF81A0003208DF8F1
:1009E000190001208DF81B0005A96F4800F06CFC70
:1009F000052203216C4800F0F2FC052204216A481C
:100A000000F0EDFC05221146674800F0E8FC0121EA
:100A1000080300F0A6FF00214FF4805000F0A1FF72
:100A20000020ADF800004FF48270ADF80200002005
:100A3000ADF80400ADF806000120ADF80800400252
:100A4000ADF80A003820ADF80C000020ADF80E001B
:100A50000720ADF810006946524801F0E7FA01217D
:100A6000504801F0DDFBFF20FFF78EFF07B000BD0F
:100A700010B5044600BF02214C4801F09DFC00283F
:100A8000F9D02146494801F04DFC00BF01214748FB
:100A900001F092FC0028F9D0444801F03FFC10BD61
:100AA00000B587B00121022000F0ACFE01218803CF
:100AB00000F0F1FE4FF46040059002208DF8180020
:100AC00000208DF81A0003208DF8190001208DF800
:100AD0001B0005A9344800F0F7FB05220D21324820
:100AE00000F07DFC05220E212F4800F078FC052245
:100AF0000F212D4800F073FC0121880300F020FF36
:100B000000214FF4804000F01BFF0020ADF80000F2
:100B10004FF48270ADF802000020ADF80400ADF88B
:100B20000600ADF808004FF40070ADF80A00382058
:100B3000ADF80C000020ADF80E000720ADF8100055
:100B400069461A4801F072FA0121184801F068FB61
:100B5000FF20FFF78DFF07B000BD10B50446114818
:100B600000884FF6C77108400E4908800846008883
:100B70002043088001210B4801F052FB10BD10B545
:100B800004460A4800884FF6C771084007490880A4
:100B900008460088204308800121044801F040FBFA
:100BA00010BD000000300140000402400038004049
:100BB0001CB50121402000F025FEC020009001203E
:100BC0008DF8040000208DF8060003208DF8050044
:100BD00001208DF8070069469D4800F075FB102044
:100BE000009000208DF8040001208DF80700694670
:100BF000974800F069FB002096490860012096495B
:100C0000C1F89C021CBD2DE9F04107460D46164671
:100C100000209049091D08603846FFF729FF8046EB
:100C2000002405E0FF20FFF723FF2855601CC4B215
:100C3000B442F7DB01208749091D08604046BDE842
:100C4000F0812DE9F04107460C4615460020814908
:100C5000091D08603846FFF70BFF8046002605E0B7
:100C600014F8010BFFF704FF701CC6B2AE42F7DBAD
:100C700001207849091D08604046BDE8F0811CB597
:100C800076A103C9CDE900011020FFF778FF052206
:100C900069463020FFF7D5FF052269461020FFF78F
:100CA000B2FF002406E01DF80400A52800D003E0F0
:100CB000601CC4B2052CF6DB00BF052C01D001205E
:100CC0001CBD0020FCE770B505460C4600206149BC
:100CD000091D08602846FFF7CBFE06462046FFF7B1
:100CE000C7FE01205C49C1F89C02304670BD70B55A
:100CF000044600205749091D08602046FFF7B8FE4A
:100D0000FF20FFF7B5FE054601205349C1F89C02BC
:100D1000284670BD70B505461020FFF730FF002053
:100D20004C49086020222946A020FFF78AFF0120B5
:100D30004949C1F8980200BF464888380068002831
:100D4000FAD10720FFF7D3FF044621462720FFF7FB
:100D5000BAFF04F0100028B1FF21E120FFF7B3FF34
:100D6000102070BD04F0200008B12020F9E7FF201A
:100D7000F7E770B504461020FFF701FF0720FFF7E3
:100D8000B6FF054629462720FFF79DFF05F04000E6
:100D900050B1202221466120FFF735FFFF21E220DC
:100DA000FFF791FF002070BD0120FCE710B5002087
:100DB0002849086005222B492A20FFF742FF01211C
:100DC0002120FFF780FF01212220FFF77CFF28214F
:100DD0002520FFF778FF20213120FFF774FF0F2136
:100DE0002620FFF770FF0F212020FFF76CFF012066
:100DF0001949C1F8980210BD10B5002015490860C6
:100E0000052219493020FFF71CFF052215492A2029
:100E1000FFF717FF01212120FFF755FF01212220B5
:100E2000FFF751FF1A212420FFF74DFF282125202D
:100E3000FFF749FF0F212620FFF745FF0E21202055
:100E4000FFF741FF01200449C1F8980210BD0000DE
:100E5000001802409802434200004342A5A5A5A500
:100E6000A5000000893300088433000810B504464B
:100E70006FF0040000F084F9E11704EB5171C1F345
:100E8000C701394A11701046007800EB4001C1EBF0
:100E9000C0104FF6FF7101EAC0003449088010BD50
:100EA0000146314A12784A434FF0E0235A6100224A
:100EB0009A611A46126942F001021A6100BF4FF0AE
:100EC000E022106900F001021AB100F48032002A19
:100ED000F5D04FF0E022126922F001024FF0E0233A
:100EE0001A6100229A6170470146204A12884A43DB
:100EF0004FF0E0235A6100229A611A46126942F0CB
:100F000001021A6100BF4FF0E022106900F00102F7
:100F10001AB100F48032002AF5D04FF0E0221269B5
:100F200022F001024FF0E0231A6100229A6170471B
:100F300070B504464FF4077094FBF0F0C6B24FF45E
:100F4000077094FBF0F100FB114085B205E04FF40F
:100F50000770FFF7C9FF701EC6B2002EF7D115B19A
:100F60002846FFF7C1FF70BD1C0000201E000020B6
:100F700000BF704700BF4C4A128802F04002002AAE
:100F8000F9D0C2B2484B9A80704710B588B0044679
:100F90000121084600F036FC0121102000F08CFCF5
:100FA00007220921414800F01AFA07220A213F4886
:100FB00000F015FA4FF4C060069002208DF81C0076
:100FC0008DF81D0000208DF81E0001208DF81F00F7
:100FD00006A9364800F078F902940020ADF80C001C
:100FE000ADF80E00ADF81000ADF814000C20ADF80F
:100FF000120002A92C4800F00AFE01212A4800F044
:101000008EFE012240F22551274800F03EFF2520A8
:101010008DF8040003208DF805008DF806000120EE
:101020008DF8070001A800F05EF808B010BD10B5FB
:1010300040F225511C4800F063FF10B31A4800F03D
:101040009DFEC4B21A48008800F40040C8B9184890
:10105000008800F4804060B10A2C03D000201449BD
:10106000088020E01248008840F4004010490880C1
:1010700019E00D2C06D10E48008840F480400C4940
:10108000088010E00A480088C0F30D0009490C549C
:1010900007480088401C0649088008460088C72881
:1010A00001DD0020088010BD00100140000002405A
:1010B00024000020B400002006488047064800476E
:1010C000FEE7FEE7FEE7FEE7FEE7FEE7FEE7FEE7F8
:1010D000FEE7FEE781030008890100083249014369
:1010E000324A1160704770B5002100230F22C47886
:1010F0001CB32E4C246804F4E064C4F5E064C4F32B
:101100000721C1F10404E3B20A4144789C40E1B2F2
:101110008478144021430C07210E254C0578615535
:10112000047804F01F050124AC4005786D11AD0072
:1011300005F1E025C5F8004109E0047804F01F0539
:101140000124AC401B4D0678761145F8264070BD51
:10115000194A0A400243154B1B1F1A60704739B1E8
:10116000124A121D12680243104B1B1D1A6006E042
:101170000E4A121D126882430C4B1B1D1A607047E9
:10118000042808D14FF0E021096941F004014FF033
:10119000E022116107E04FF0E021096921F004012C
:1011A0004FF0E022116170470000FA050CED00E0FD
:1011B00000E400E080E100E080FFFF1F10B504467E
:1011C0009848844208D10121084600F086FB00219E
:1011D000012000F082FB76E09348844208D101218F
:1011E000022000F07AFB0021022000F076FB6AE08A
:1011F0008E48844208D10121042000F06EFB0021BA
:10120000042000F06AFB5EE08948844208D1012195
:10121000082000F062FB0021082000F05EFB52E095
:101220008448844208D10121102000F056FB00219F
:10123000102000F052FB46E07F48844208D1012193
:10124000202000F04AFB0021202000F046FB3AE07D
:101250007A48844208D10121402000F03EFB002161
:10126000402000F03AFB2EE07548844208D101216D
:10127000802000F032FB0021802000F02EFB22E0D5
:101280007048844208D10121801500F026FB00211E
:10129000A01500F022FB16E06B48844208D1012122
:1012A000401500F01AFB0021601500F016FB0AE063
:1012B0006648844207D10121001500F00EFB002191
:1012C000201500F00AFB10BDF0B50A4600210023EE
:1012D000002400BF3DE0012505FA01F3156805EA89
:1012E00003049C4234D105684F000326BE40B54339
:1012F000056015794E00B5400668354305601579DF
:10130000012D02D01579022D16D185684F000326D4
:10131000BE40B543856055794E00B540866835437B
:101320008560456801268E40B543456045689679DD
:101330008E40B6B235434560C5684F000326BE40B7
:10134000B543C560D5794E00B540C6683543C56024
:10135000491C1029BFD3F0BD4FF6FF710160002179
:10136000017141718171C171704708B54FF48032CC
:101370000092009A0A430092009AC261C161009AE9
:10138000C261C2690092C269009208BD0246002093
:1013900013690B400BB1012000E0002070470146AB
:1013A000086980B270470246002053690B400BB1B8
:1013B000012000E0002070470146486980B2704774
:1013C00001837047418370470AB1018300E0418384
:1013D00070474161704742694A4042617047F0B5C9
:1013E000002300244D07ED0E02FA05F3CE1000F1A4
:1013F000200555F826504E07F70E0F26BE40B54380
:10140000CF1000F1200646F82750CE1000F120053D
:1014100055F8265045EA0304CE1000F1200545F8A2
:101420002640F0BD000002400004024000080240D7
:10143000000C02400010024000140240001802405C
:10144000001C02400020024000240240002802400C
:10145000F948006840F00100F74908600020F649AB
:1014600008310860F4480068F4490840F24908600F
:10147000F348091D0860F348EF4984310860F048DB
:101480001038091D0860EC48006820F48020EA4903
:1014900008600020E8490C310860E7498C31086099
:1014A00070470021E44A921C117011460870704781
:1014B00010B501460022002300204A11012A02D162
:1014C000DD4C236808E0022A03D1DB4C703423682A
:1014D00002E0D94C7434236801F01F0201249440C7
:1014E0001C400CB1012000E0002010BD38B50020E8
:1014F00000900024002500BF3120FFF7D9FF0546EA
:101500000098401C00900098B0F5A04F01D0002D2D
:10151000F2D03120FFF7CCFF08B1012400E0002415
:10152000204638BD01460020C34A106820F0F8006C
:1015300040EAC10010607047C3490860704700214D
:10154000BD4A703211701170012802D004280AD1EE
:1015500004E00121B84A7032117005E00521B64A55
:101560007032117000E000BF00BF7047B7490860DB
:10157000704770B5049C41EA82150126C6EB5306FC
:1015800045EA0645054345EA0465AB4E361D356020
:1015900070BDAD4908667047820142EA0172A64BF0
:1015A00084331A607047A8498866704710B5830174
:1015B00043EA016343EA02739F4C8834236010BD01
:1015C000A14908677047A049C864704702460020D7
:1015D000994B0833186820F0EC6042EA0103184385
:1015E000954B08331860704702460020924B083331
:1015F000186820F0784042EA010318438E4B083304
:1016000018607047014600208B4A0832106820F0AD
:10161000030008431060704787480830006800F0F6
:101620000C00704701460020834A0832106820F001
:10163000F000084310607047014600207E4A0832DF
:10164000106820F4E0500843106070470146002005
:10165000794A0832106820F4604040EAC100106006
:101660007047F0B500210022002402250026022345
:10167000714F08373F6807F00C0121B1042905D0EC
:10168000082937D105E0724F076036E0714F0760D7
:1016900033E0694F3F1D3F68C7F38056664F3F1DDB
:1016A0003F6807F03F036EB16A4FB7FBF3F7DFF80F
:1016B00088C10CF1040CDCF800C0CCF3881C07FBDB
:1016C0000CF40CE0624FB7FBF3F7DFF86CC10CF1E0
:1016D000040CDCF800C0CCF3881C07FB0CF4564F5C
:1016E0003F1D3F68C7F301477F1C7D00B4FBF5F742
:1016F000076002E0564F076000BF00BF4E4F08373B
:101700003F6807F0F0010909534F7A5C0768D7403A
:101710004760494F08373F6807F4E051890A4E4F48
:101720007A5C4768D7408760434F08373F6807F4C3
:101730006041490B484F7A5C4768D740C760F0BDAD
:10174000002100F44072B2F5407F0AD13A4A0832D3
:10175000116821F4F811414A02401143364A083217
:101760001160354A70321268C0F30B031A43324BD2
:1017700070331A60704735494439086070473349FF
:1017800040390860704736490860704701460020BC
:10179000294A8C32106820F01F004A1E1043264A46
:1017A0008C321060704701460020234A8C3210684A
:1017B00020F4F8504A1E40EA02201F4A8C32106082
:1017C0007047014600201C4A8C32106820F44010FB
:1017D00008431060704701460020174A8C32106899
:1017E00020F4400008431060704701460020124A70
:1017F0008C32106820F4403008431060704719495B
:101800000860704739B10C4A3032126802430A4B03
:1018100030331A6006E0084A303212688243064BC1
:1018200030331A607047F9B1034A34321268024308
:10183000014B34331A601CE000380240FFFFF6EA27
:10184000103000240030002000004742800E474244
:101850000024F40000127A0026000020FFFCFF0F95
:101860005C014742E01147428F4A126882438E4B27
:101870001A60704739B18C4A121D126802438A4BB4
:101880001B1D1A6006E0884A121D12688243864BAF
:101890001B1D1A60704739B1834A0C32126802432B
:1018A000814B0C331A6006E07F4A0C321268824387
:1018B0007D4B0C331A60704739B17B4A1032126885
:1018C0000243794B10331A6006E0774A10321268EF
:1018D0008243754B10331A60704739B1724A243A0B
:1018E00012680243704B243B1A6006E06E4A243AA9
:1018F000126882436C4B243B1A60704739B16A4AC4
:10190000203A12680243684B203B1A6006E0664AA0
:10191000203A12688243644B203B1A60704739B109
:10192000614A1C3A126802435F4B1C3B1A6006E096
:101930005D4A1C3A126882435B4B1C3B1A6070473D
:1019400039B1594A143A12680243574B143B1A6092
:1019500006E0554A143A12688243534B143B1A600E
:10196000704739B1504A103A126802434E4B103B4F
:101970001A6006E04C4A103A126882434A4B103B08
:101980001A60704739B1484A1C3212680243464B0C
:101990001C331A6006E0444A1C3212688243424BF0
:1019A0001C331A60704739B13F4A20321268024333
:1019B0003D4B20331A6006E03B4A203212688243D6
:1019C000394B20331A60704739B1374A24321268D4
:1019D0000243354B24331A6006E0334A243212683E
:1019E0008243314B24331A60704739B12E4A2C326E
:1019F000126802432C4B2C331A6006E02A4A2C3220
:101A000012688243284B2C331A60704739B1264A3A
:101A1000303212680243244B30331A6006E0224A07
:101A2000303212688243204B30331A6070470128ED
:101A300008D11D493C31096841F008011A4A3C327D
:101A4000116007E018493C31096821F00801164A85
:101A50003C321160704739B1134A273A1278024379
:101A6000114B273B1A7006E00F4A273A127882433F
:101A70000D4B273B1A7070470B484030006840F010
:101A80008070094940310860704701460020064ACD
:101A9000283A12680A400AB1012000E0002070478D
:101AA00001492639087070473438024010B50121C9
:101AB0008803FFF756FF00214FF48040FFF751FFE6
:101AC00010BD1C49086070471B490862704730B55B
:101AD00000228B071C0F0F2303FA04F2154B083367
:101AE0008C1053F824309343124C08348D1044F872
:101AF000253023468C1053F824308C07240F00FA2D
:101B000004F423430B4C08348D1044F8253030BDC9
:101B10000949DC31086070470849086070470020B7
:101B200004492031096801F4807109B1012000E005
:101B3000002070470038014000002742000427427F
:101B400010B50446FA48844208D101211020FFF75D
:101B500008FF00211020FFF704FF57E0F5488442FA
:101B600009D101214804FFF7EBFE00214FF40030BA
:101B7000FFF7E6FE4AE0F048844209D101218804DB
:101B8000FFF7DEFE00214FF48020FFF7D9FE3DE095
:101B9000EA48844209D10121C804FFF7D1FE00219F
:101BA0004FF40020FFF7CCFE30E0E548844209D135
:101BB00001210805FFF7C4FE00214FF48010FFF754
:101BC000BFFE23E0DF48844208D101212020FFF737
:101BD000C8FE00212020FFF7C4FE17E0DA48844247
:101BE00009D101218807FFF7ABFE00214FF08040AB
:101BF000FFF7A6FE0AE0D548844207D1012140053F
:101C0000FFF79EFE00216005FFF79AFE10BD2DE94B
:101C1000FF4705460E460024A14600BFA046B089F6
:101C200000B100BF2C8A24F44054F08804432C8275
:101C3000AC8941F20C608443B088318908437189D2
:101C400008430443AC81AC8A24F44074B089044353
:101C5000AC826846FFF705FDB548854202D0B94819
:101C6000854202D1DDF80C9001E0DDF80890A889EA
:101C700000F4004040B109EBC90000EB09103168E5
:101C80004900B0FBF1F707E009EBC90000EB0910D0
:101C900031688900B0FBF1F76420B7FBF0F0040174
:101CA0002009642101FB1078A88900F4004040B1AC
:101CB000322000EBC800B0FBF1F000F00700044355
:101CC00008E0322000EB08106421B0FBF1F000F0D6
:101CD0000F0004432C81BDE8FF874FF416510160CB
:101CE00000218180C18001810C21418100218181FD
:101CF000704710B502460020108A20F470600B88EF
:101D00004C8823438C882343CC8823431843108278
:101D100010BD0021018041808180C180704721B1C8
:101D2000828942F40052828104E082894DF6FF7379
:101D30001A4082817047028B02F47F420283028B39
:101D40000A430283704721B1828942F400428281B2
:101D500003E08289C2F30E028281704721B1828A38
:101D600042F40062828204E0828A4FF2FF731A40DA
:101D700082827047C1F308028280704701468888DA
:101D8000C0F308007047028A4FF6F0731A400282CF
:101D9000028A0A430282704721B1828942F002021C
:101DA000828104E082894FF6FD731A408281704778
:101DB00082894FF2FF731A40828182890A438281AD
:101DC0007047028A4FF6DF731A400282028A0A4382
:101DD0000282704721B1028A42F48042028204E00A
:101DE000028A4BF6FF731A4002827047818941F0E4
:101DF00001018181704721B1828A42F0080282820A
:101E000004E0828A4FF6F7731A4082827047028B91
:101E1000D2B20283028B42EA01220283704721B1CF
:101E2000828A42F02002828204E0828A4FF6DF73C7
:101E30001A408282704721B1828A42F01002828267
:101E400004E0828A4FF6EF731A4082827047828ADA
:101E50004FF6FB731A408282828A0A43828270475D
:101E600021B1828A42F00202828204E0828A4FF625
:101E7000FD731A40828270471AB1838A0B438382B2
:101E800002E0838A8B4383827047F0B503460024C7
:101E900000260025002040F66A17B94200D100BF95
:101EA0001846C1F3421401F01F06012707FA06F590
:101EB000012C01D10C3004E0022C01D1103000E0E3
:101EC00014301AB107682F43076002E00768AF4378
:101ED0000760F0BD02460020B1F5007F00D100BFD1
:101EE00013880B400BB1012000E00020704701F483
:101EF0000072B2F5007F00D100BFCA430280704774
:101F000070B50246002400230025002040F66A1622
:101F1000B14200D100BFC1F3421501F01F030126F9
:101F200006FA03F3012D13D19689334017E0000020
:101F3000001001400044004000480040004C0040B8
:101F4000005000400014014000780040007C004038
:101F5000022D02D1168A334001E0968A33400C12DA
:101F6000012606FA04F41688344013B10CB101209E
:101F700000E0002070BD10B50022002340F66A1476
:101F8000A14200D100BF0A1201249440A3B2DC4355
:101F9000048010BD10B50446FC48844208D10121DC
:101FA0008014FFF7DEFC0021A014FFF7DAFC3CE010
:101FB000F748844208D101210014FFF7C1FC002139
:101FC0002014FFF7BDFC30E0F248844208D1012123
:101FD000C013FFF7B5FC0021E013FFF7B1FC24E0CC
:101FE000ED48844208D101214014FFF7BAFC0021DA
:101FF0006014FFF7B6FC18E0E848844209D10121DB
:102000000805FFF7AEFC00214FF48010FFF7A9FC94
:102010000BE0E348844208D101214805FFF7A1FC09
:1020200000214FF40010FFF79CFC10BD10B50022FA
:10203000028802F441520B884C8823438C88234346
:10204000CC8823430C8923434C8923438C89234325
:10205000CC8923431A430280838B4FF2FF742340C1
:1020600083830B8A038210BD2DE9F04F00250223E4
:1020700000244FF0010900220026002794469046D4
:10208000B0F81CA04FF2400B0AEA0B0AA0F81CA003
:102090004FF0020AA0F820A0858BD1F808A0BAF171
:1020A000020F01D100BF82E0B1F804A0BAF1000F25
:1020B00002D14FF0010901E04FF00209DFF8E4A27C
:1020C000DAF800A00AF4000ABAF1000F09D0DFF82C
:1020D000D4A2DAF800A02AF4000ADFF8C8B2CBF8DC
:1020E00000A0DFF8C0A20AF17C0ADAF800A0CAF367
:1020F000881CDFF8B0A20AF17C0ADAF800A0CAF363
:102100000278DFF8A0A2AAF1040ADAF800A00AF027
:102110003F07DFF890A2AAF1040ADAF800A00AF457
:10212000800ABAF5800F08D1DFF87CA2BAFBF7FA73
:102130000AFB0CFABAFBF8F607E0DFF870A2BAFB6C
:10214000F7FA0AFB0CFABAFBF8F6B1F806A0BAF5F2
:10215000007F0ED14FEA162A0AEB8A0A4FEA4A0A92
:10216000D1F808B0BAFBFBFA0AF1050A1FFA8AF2A5
:102170000FE04FEA491AB6FBFAFA0AEB8A0A4FEA6D
:102180004A0AD1F808B0BAFBFBFA0AF1050A1FFAAD
:102190008AF24FF00A0AB2FBFAF202F00104A2EB53
:1021A000040ACAF34F034FF6FF7A0AEA0424022B0B
:1021B00001DBFF2B01DD02230024B1F806A04AEA6F
:1021C000040A4AEA030AA0F820A0B1F804A0B1F872
:1021D0000CB04AEA0B0AB1F802B04AEA0B0AB1F8AD
:1021E00000B04AEA0B0A4AF4006A4AEA0505858308
:1021F000BDE8F08F0021018041808180C180018194
:1022000041818181C18107210182704700210180C4
:1022100041808180C18002218160002181817047DD
:1022200021B1028842F04002028004E002884FF6A9
:10223000BF731A400280704721B1828B42F48062E2
:10224000828304E0828B4FF6FF331A40828370470B
:1022500002884FF2FF731A40028002880A4302800C
:102260007047B1F5804F04D1028842F48042028069
:1022700004E002884BF6FF731A40028070474FF665
:10228000FF62914204D0028842F48072028004E02E
:1022900002884FF6FF631A400280704721B182889E
:1022A00042F00402828004E082884FF6FB731A40F9
:1022B0008280704721B1828842F01002828004E05F
:1022C00082884FF6EF731A408280704730B5002243
:1022D0000023848B4FF240052C4084830224048425
:1022E000828B0C88B4F5007F01D00C8814B94FF4B0
:1022F000807308E00C88B4F5407F03D00C88B4F5F7
:10230000807F00D100238C888D892C434D882C43FD
:102310001C4344F400642243828330BD0146888913
:10232000C0B270478181704721B1028842F40052E7
:10233000028004E002884DF6FF731A400280704765
:10234000018841F480510180704702460020012934
:1023500001D0108B00E0908A70470146088A7047D0
:102360001AB183880B43838002E083888B43838088
:10237000704730B5002400230C110125A540ABB2F5
:10238000B2B185881D43858015E000000030014012
:1023900000380040003C0040003401400050014043
:1023A000005401400838024000127A000024F40072
:1023B00085889D43858030BD0246002013890B40EF
:1023C0000BB1012000E000207047CA430281704732
:1023D000F0B50246002000240023002501F00F077D
:1023E0000126BE40B4B20B1101269E40B3B29688BE
:1023F00006EA03051689264016B10DB1012000E05A
:102400000020F0BD10B5002201F00F040123A3400D
:102410009AB2D343038110BD002041490860091DD1
:102420000860091D0860091D08603E483C491431D8
:102430000860704700213A498279002A3AD00A465A
:10244000126803689A430B461A600A1D12680368F3
:102450009A430B1D1A60027911440A6803681A43F3
:102460000A602F4A0832126803689A432C4B0833DB
:102470001A601A1D126803689A43294B0C331A60BC
:102480004279102A0ED11A1F126803681A43244B8E
:1024900008331A601A1D126803681A43204B0C3364
:1024A0001A600DE01E49427911440A6803681A4314
:1024B0000A6005E0027911440A6803689A430A60D9
:1024C00070470021016001710C214171002181716F
:1024D00070471349103109680143114A10321160E5
:1024E0007047014600200E4A143212680A400AB1B1
:1024F000012000E00020704709491431086070474E
:1025000001460020064A143212680A400AB101202E
:1025100000E0002070470249143108607047000055
:10252000003C0140FFFF7F00D2B201E000F8012B28
:10253000491EFBD270470022F6E710B513460A4643
:1025400004461946FFF7F0FF204610BD2DE9FE4F67
:1025500081EA030404F0004421F0004100944FF0AC
:10256000000B23F0004350EA01045ED052EA03045A
:102570005BD0C3F30A54C1F30A552C44A4F2F334DC
:102580000194A0FB0254C1F3130141F48011C3F381
:10259000130343F4801301FB024400FB034E840A3F
:1025A000970A44EA815447EA8357A4FB07680295D7
:1025B0008D0A05FB07854FEA932C04FB0C54270575
:1025C000029D4FEA065847EA1637B5EB08056EEB51
:1025D000070C870E920E47EA811742EA8312A7FB87
:1025E0000201B6EB0B0164EB00042B0D43EA0C3344
:1025F0005E1844EB1C50DA465146E7FB0201C5F376
:1026000013044FEA0B3343EA14534FEA0432019C9C
:1026100043EA0603A4F10C040294009CCDE900B443
:1026200000F07FF803B0BDE8F08F00200146F9E725
:1026300000F0004230F000400AD0C10D01F5607199
:10264000C0F3160042EA0151C20840071143704727
:1026500000200146704730B50B460146002020227D
:10266000012409E021FA02F59D4205D303FA02F59F
:10267000491B04FA02F52844151EA2F10102F1DCFF
:1026800030BD2DE9F05F0546002092469B46884606
:102690000646814640241BE02846414647462246DE
:1026A00000F020F853465A46C01A914110D3114603
:1026B0001846224600F0DCF92D1A67EB01084F4658
:1026C00022460120002100F0D3F917EB00094E410A
:1026D000201EA4F10104DFDC484631462A46434669
:1026E000BDE8F09F202A04DB203A21FA02F0002105
:1026F000704721FA02F3D040C2F120029140084312
:102700001946704710B5141E73F1000408DA401C16
:1027100041F1000192185B411A4301D120F0010000
:1027200010BD2DE9F04D92469B4611B1B1FA81F2F0
:1027300002E0B0FA80F22032904600F099F90446A7
:102740000F4640EA0A0041EA0B0153465A46084345
:1027500013D0114653EA010019D0C8F14002504687
:10276000FFF7C0FF05460E4650465946424600F068
:102770007FF9084305D0012004E020463946BDE832
:10278000F08D0020054346EAE0762C4337430A9853
:102790006305E40AA0EB08000022FD0A44EA47545E
:1027A0000A3002D500200146E9E701051019694108
:1027B000DDE9084500196941BDE8F04DA2E72DE9C2
:1027C000FE4F804681EA0300C00F0C46009021F0C6
:1027D000004123F00045B8EB0200A94105D2404674
:1027E000214690461C460B46024623F0004010430B
:1027F00047D0270DC7F30A00C3F30A510290401ACD
:10280000019040286BDAC3F3130040F4801B00985A
:10281000924620B10023D2EB030A63EB0B0B019825
:102820005946C0F14002504600F022F906460D46D6
:1028300050465946019A00F02AF910EB0800614110
:10284000002487EA115284EAE7731A4340D0009AC1
:1028500062B3019A012A4FEA075215DC001B61EBB3
:1028600002014FF0004202EA0752CDE90042001C8B
:1028700041F5801132462B46FFF753FF03B0BDE808
:10288000F08F40462146F9E7001B61EB0201001C76
:1028900041F5801300185B412018A2F5001747EBA3
:1028A000030140EAD570B6196D4111E06D084FEA99
:1028B000360645EAC0754FEA0752001B61EB02017C
:1028C000001C41F5801149084FEA300000195141C0
:1028D00032462B4603B0BDE8F04FFFF713BF009818
:1028E000012240000023D0EB020263EBE07300986A
:1028F00021464FEAE074B8EB000061EB0401E9E720
:1029000083F000435BE781F0004158E72DE9F04D8B
:1029100081EA030404F0004B21F0004514464FF017
:10292000000A23F0004150EA050220D054EA0102D7
:102930001DD0C5F30A570246C5F31303C1F31300B4
:10294000C1F30A5640F4801543F48013A7EB060840
:10295000101BD64608F2FD3873EB050002D308F1D0
:10296000010801E092185B41B8F1000F03DA002082
:102970000146BDE8F08D00204FF4801106468446E4
:102980000EE0171B73EB050705D3121B63EB050362
:1029900006434CEA010C49084FEA300092185B41AB
:1029A00050EA0107EDD152EA030012D082EA040096
:1029B00083EA0501084305D0101BAB4106D2012272
:1029C000002306E000224FF0004302E06FF0010216
:1029D00053101AEB06004CEB085110EB0A0041EBC8
:1029E0000B01BDE8F04DFFF78DBEC1F30A52C1F3F4
:1029F000130140F2FF3341F480119A4202DA0020C1
:102A00000146704740F233439A42A2F2334202DC5D
:102A10005242FFF767BE00F02BB8000030B5041E2D
:102A200071F1000404DB4FF00044404264EB01010B
:102A3000141E73F1000405DB1C464FF000435242A4
:102A400063EB0403994208BF904230BD064C074D2A
:102A500006E0E06840F0010394E80700984710346E
:102A6000AC42F6D3FDF794FB90330008B033000876
:102A7000202A04DB203A00FA02F10020704791403E
:102A8000C2F1200320FA03F3194390407047202A33
:102A900006DBCB17203A41FA02F043EAE07306E086
:102AA00041FA02F3D040C2F1200291400843194696
:102AB000704700000FB4054B10B503A9044A0298F3
:102AC00000F0DAF810BC5DF814FB0000750F000888
:102AD0002000002002E008C8121F08C1002AFAD115
:102AE00070477047002001E001C1121F002AFBD18E
:102AF000704700002DE9FF5F82B00021DDE904305E
:102B0000020DDDF840B0034318D044F61050A2F295
:102B1000FF3242431514119801281FD0A5EB0B007A
:102B2000401C5FEA000A4FF000064E4FDFF8389174
:102B3000B046504615D5CAF1000413E0119801249F
:102B40004AA3012801D16FEA0B010298119AC0E94A
:102B50000031C0E9024206B0BDE8F09FCBF10000B1
:102B6000DFE704460021404A491842EB0450CDE912
:102B7000001012E0E00707D032463B464046494687
:102B8000FFF7E4FC8046894632463B46104619462C
:102B9000FFF7DCFC06460F466410002CEAD1DDE9A5
:102BA0000401DDE90023BAF1000F06DAFFF7CEFCDD
:102BB00042464B46FFF7CAFC05E0FFF7A7FE424638
:102BC0004B46FFF7A3FE04460E460022284BFFF7B4
:102BD00025FF03D84FF0FF30014607E00022254BC8
:102BE00020463146FFF7EBFDFFF7FFFE102409E01A
:102BF000002C0ADB0A220023FFF743FD039B30323F
:102C00001A55641E50EA0102F2D1641C039AC4F101
:102C100011031444119A012A03D0012208430DD153
:102C20000AE0084304D000204FF0110B119072E726
:102C3000A3EB0B056D1E0DE05B4504DD4FF00002BC
:102C400005F1010504E003DA4FF00002A5F10105EA
:102C5000002AECD002981199C0E90231C0E9004580
:102C600079E70000000014400000F03F3000000051
:102C70000000F0430000E03F2DE9FF4F95B09A4679
:102C8000884606460025EEE1252877D10024274610
:102C9000F94A0121039400E0044316F8013F203B68
:102CA00001FA03F01042F7D130782A2811D06FF0E2
:102CB0002F033078A0F13002092A16D8039A44F085
:102CC000020402EB820203EB42021044761C0390E2
:102CD000EFE758F8042B0392002A03DA504244F439
:102CE0000054039044F00204761C30782E2816D14C
:102CF00016F8010F44F004042A280DD06FF02F02BB
:102D00003078A0F13003092B09D807EB870302EBD9
:102D10004303C718761CF3E758F8047B761C307819
:102D20006C280FD006DC4C2817D068280DD06A28F4
:102D300014D104E0742810D07A280FD10DE044F4A7
:102D400000140AE044F4801401E044F44014727862
:102D5000824202D104F58014761C761C30786628F5
:102D60000BD013DC582877D009DC002875D0452813
:102D7000F6D04628F4D047281AD193E118E063280A
:102D800035D0642879D0652812D18BE1702873D0B2
:102D900008DC6728F1D069286FD06E280DD06F2825
:102DA00006D1ACE073282CD0752874D0782853D085
:102DB0005246179990476D1C54E1C4F30250022803
:102DC00009D003280DD0D8F8001004280DD00D60CC
:102DD00008F1040846E1D8F80010EA17C1E90052EA
:102DE000F6E7D8F800100D80F2E70D70F0E718F85C
:102DF000041B8DF8001000208DF80100EB46012027
:102E000003E058F804BB4FF0FF3061074FF00001BA
:102E100002D40DE009F101018946B9420FDA81457A
:102E2000F8DB1BF809100029F4D108E009F10101D1
:102E300089468142FADB1BF809100029F6D1039874
:102E40005346A0EB090721463846179A00F080FA4E
:102E5000284400EB090507E044E008E10DE01BF819
:102E6000010B524617999047B9F10109F7D2534621
:102E700021463846179AF2E039E00A21C4F302529B
:102E80004FF0000B0091022A06D058F8040BC1172E
:102E9000032A09D00AE023E008F1070020F0070226
:102EA000F2E80201904605E000B2C117042A01D100
:102EB00040B2C117002906DA0A460021404261EB00
:102EC00002012D2202E0220504D52B228DF80420D8
:102ED000012203E0E20701D02022F7E7914657E004
:102EE0000A2100E010214FF0000B00910BE01021AF
:102EF0004FF0000B44F004040827009103E0082081
:102F00004FF0000B0090C4F30252022A05D058F88B
:102F1000040B0021032A08D008E008F1070020F084
:102F20000702F2E80201904603E080B2042A00D1D1
:102F3000C0B24FF0000922072AD53278702A07D094
:102F4000DDF800C08CF0100C5CEA0B0C05D00EE034
:102F500040228DF80420012208E050EA010306D047
:102F600030238DF804308DF8052002229146009B15
:102F700083F0080353EA0B030AD150EA010201D19E
:102F8000620705D530228DF804204FF001097F1E1D
:102F90003278582A04D039A20C920CAA02920BE083
:102FA0003BA2F9E75B46009AFFF76BFB0C9B9B5C2F
:102FB000029A521E0292137050EA0102F2D1029854
:102FC00004A9081A00F1200B600702D524F480340C
:102FD00000E001275F4502DDA7EB0B0000E00020C9
:102FE00000EB0B01009003984944401A0390E00362
:102FF00006D453462146179A039800F0A9F90544D0
:10300000002706E001A85246C05D179990476D1C45
:103010007F1C4F45F6DBE0030CD553462146179A3B
:10302000039800F095F9054404E0302052461799C2
:1030300090476D1C0099481E00900029F5DC08E0BF
:103040000298029952460078491C029117999047BC
:103050006D1CBBF10001ABF1010BF1DC5BE100F099
:1030600065F90544761C307800287FF40DAE19B060
:103070002846BDE8F08F00000928010030313233C6
:1030800034353637383961626364656600000000A4
:10309000303132333435363738394142434445468E
:1030A00000000000600700D4062708F1070020F0A8
:1030B0000700F0E80223804603F0004C5FEA0C00B2
:1030C00001D097A009E0200501D596A005E0E00712
:1030D00001D095A001E0AFF24C001390307823F0BE
:1030E000004365280CD006DC452809D046281DD0B1
:1030F00047287FD13BE0662818D067287AD136E090
:103100000021112F01DB112000E0781CCDE9000126
:1031100004A90CA8FFF7EEFCDDE90D010C9A4FF0B5
:10312000000B07F10109109200914EE04FF00040B2
:103130000097CDE9011004A90CA8FFF7DBFCDDE93D
:103140000D020C9B0F994FF0000B914610930092CB
:1031500011B9791C00EB0109B7EB090003D4C0F1E8
:10316000FF3B07F10109A9EB0700019042E0012FA5
:1031700000DA01270021112F01DD112000E038467F
:10318000CDE9000104A90CA8FFF7B4FCDDE90D01AD
:103190000C9A00914FF0000BB946109221070FD402
:1031A000009A4A4503DA914601E0A9F10109B9F113
:1031B000010F05DD109AA9F10101515C3029F4D00D
:1031C000B84202DA10F1040F03DA0121CDE901104F
:1031D00010E0002803DC8344A9EB000102E0411C5D
:1031E000494500DD8946A0EB0B00401C01904FF0E3
:1031F00000400290200705D40198484502DB4FF0BB
:10320000FF30019000208DF84B0002980DF14B0724
:10321000B0F1004F25D002200C902B200D90029889
:1032200000280CDA404202902D200D9007E00A2180
:103230000298FFF710FA3031029007F8011D0C993F
:10324000481E0C900029F2DC02980028EFD1791E6C
:103250000D980870307800F0200040F0450007F825
:10326000020D11A8C01BC01D02901398007800B178
:10327000012000EB0901019801EBE0710298014483
:103280000398401A401E0390E00306D4534621469B
:10329000179A039800F05CF805441398007818B169
:1032A0005246179990476D1CE00323D5534621469B
:1032B000179A039800F04CF805441BE0BBF1000F8F
:1032C00007DB0098584504DD1098179910F80B009B
:1032D00001E0179930205246904701980BF1010BFD
:1032E000401E05F10105019004D12E205246179988
:1032F00090476D1CB9F10001A9F10109DEDC05E080
:1033000017F8010B5246179990476D1C0299481EF9
:1033100002900029F4DC53462146179A03989EE652
:103320002D0000002B000000200000002DE9F041DE
:10333000044600251E461746880404D405E0394695
:103340002020B0476D1C641EF9D52846BDE8F081E9
:103350002DE9F041044600251E469046C80301D5DC
:10336000302700E02027880404D505E04146384690
:10337000B0476D1C641EF9D52846BDE8F0810000F9
:1033800003616263344310100134431010010000E4
:10339000B03300080000002038000000D42A0008E4
:1033A000E83300083800002048050000E42A00083F
:1033B000007A030A0000000000000000010203047C
:1033C0000607080901000000C3F5003500000000F1
:1033D00000000000000000000000010203040102E0
:0833E0000304060708090000C0
:040000050800018965
:00000001FF
